{
  "contractName": "Pipi",
  "abi": [
    {
      "inputs": [
        {
          "internalType": "string",
          "name": "name1",
          "type": "string"
        },
        {
          "internalType": "string",
          "name": "symbol1",
          "type": "string"
        }
      ],
      "stateMutability": "nonpayable",
      "type": "constructor"
    },
    {
      "anonymous": false,
      "inputs": [
        {
          "indexed": true,
          "internalType": "address",
          "name": "owner",
          "type": "address"
        },
        {
          "indexed": true,
          "internalType": "address",
          "name": "approved",
          "type": "address"
        },
        {
          "indexed": true,
          "internalType": "uint256",
          "name": "tokenId",
          "type": "uint256"
        }
      ],
      "name": "Approval",
      "type": "event"
    },
    {
      "anonymous": false,
      "inputs": [
        {
          "indexed": true,
          "internalType": "address",
          "name": "owner",
          "type": "address"
        },
        {
          "indexed": true,
          "internalType": "address",
          "name": "operator",
          "type": "address"
        },
        {
          "indexed": false,
          "internalType": "bool",
          "name": "approved",
          "type": "bool"
        }
      ],
      "name": "ApprovalForAll",
      "type": "event"
    },
    {
      "anonymous": false,
      "inputs": [
        {
          "indexed": true,
          "internalType": "address",
          "name": "from",
          "type": "address"
        },
        {
          "indexed": true,
          "internalType": "address",
          "name": "to",
          "type": "address"
        },
        {
          "indexed": true,
          "internalType": "uint256",
          "name": "tokenId",
          "type": "uint256"
        }
      ],
      "name": "Transfer",
      "type": "event"
    },
    {
      "inputs": [],
      "name": "_contractName",
      "outputs": [
        {
          "internalType": "string",
          "name": "",
          "type": "string"
        }
      ],
      "stateMutability": "view",
      "type": "function"
    },
    {
      "inputs": [],
      "name": "_contractSymbol",
      "outputs": [
        {
          "internalType": "string",
          "name": "",
          "type": "string"
        }
      ],
      "stateMutability": "view",
      "type": "function"
    },
    {
      "inputs": [],
      "name": "name",
      "outputs": [
        {
          "internalType": "string",
          "name": "",
          "type": "string"
        }
      ],
      "stateMutability": "view",
      "type": "function"
    },
    {
      "inputs": [],
      "name": "symbol",
      "outputs": [
        {
          "internalType": "string",
          "name": "",
          "type": "string"
        }
      ],
      "stateMutability": "view",
      "type": "function"
    },
    {
      "inputs": [
        {
          "internalType": "address",
          "name": "owner",
          "type": "address"
        }
      ],
      "name": "balanceOf",
      "outputs": [
        {
          "internalType": "uint256",
          "name": "",
          "type": "uint256"
        }
      ],
      "stateMutability": "view",
      "type": "function"
    },
    {
      "inputs": [
        {
          "internalType": "uint256",
          "name": "tokenId",
          "type": "uint256"
        }
      ],
      "name": "ownerOf",
      "outputs": [
        {
          "internalType": "address",
          "name": "",
          "type": "address"
        }
      ],
      "stateMutability": "view",
      "type": "function"
    },
    {
      "inputs": [
        {
          "internalType": "address",
          "name": "to",
          "type": "address"
        },
        {
          "internalType": "uint256",
          "name": "tokenId",
          "type": "uint256"
        }
      ],
      "name": "approve",
      "outputs": [],
      "stateMutability": "nonpayable",
      "type": "function"
    },
    {
      "inputs": [
        {
          "internalType": "uint256",
          "name": "tokenId",
          "type": "uint256"
        }
      ],
      "name": "getApproved",
      "outputs": [
        {
          "internalType": "address",
          "name": "",
          "type": "address"
        }
      ],
      "stateMutability": "view",
      "type": "function"
    },
    {
      "inputs": [
        {
          "internalType": "address",
          "name": "operater",
          "type": "address"
        },
        {
          "internalType": "bool",
          "name": "_approved",
          "type": "bool"
        }
      ],
      "name": "setApprovalForAll",
      "outputs": [],
      "stateMutability": "nonpayable",
      "type": "function"
    },
    {
      "inputs": [
        {
          "internalType": "address",
          "name": "owner",
          "type": "address"
        },
        {
          "internalType": "address",
          "name": "operater",
          "type": "address"
        }
      ],
      "name": "isApprovedForAll",
      "outputs": [
        {
          "internalType": "bool",
          "name": "",
          "type": "bool"
        }
      ],
      "stateMutability": "view",
      "type": "function"
    },
    {
      "inputs": [
        {
          "internalType": "address",
          "name": "from",
          "type": "address"
        },
        {
          "internalType": "address",
          "name": "to",
          "type": "address"
        },
        {
          "internalType": "uint256",
          "name": "tokenId",
          "type": "uint256"
        }
      ],
      "name": "transferFrom",
      "outputs": [],
      "stateMutability": "nonpayable",
      "type": "function"
    },
    {
      "inputs": [
        {
          "internalType": "address",
          "name": "from",
          "type": "address"
        },
        {
          "internalType": "address",
          "name": "to",
          "type": "address"
        },
        {
          "internalType": "uint256",
          "name": "tokenId",
          "type": "uint256"
        }
      ],
      "name": "safeTransferFrom",
      "outputs": [],
      "stateMutability": "nonpayable",
      "type": "function"
    },
    {
      "inputs": [
        {
          "internalType": "address",
          "name": "from",
          "type": "address"
        },
        {
          "internalType": "address",
          "name": "to",
          "type": "address"
        },
        {
          "internalType": "uint256",
          "name": "tokenId",
          "type": "uint256"
        },
        {
          "internalType": "bytes",
          "name": "_data",
          "type": "bytes"
        }
      ],
      "name": "safeTransferFrom",
      "outputs": [],
      "stateMutability": "nonpayable",
      "type": "function"
    },
    {
      "inputs": [
        {
          "internalType": "address",
          "name": "to",
          "type": "address"
        },
        {
          "internalType": "uint256",
          "name": "tokenId",
          "type": "uint256"
        }
      ],
      "name": "mint",
      "outputs": [],
      "stateMutability": "nonpayable",
      "type": "function"
    },
    {
      "inputs": [
        {
          "internalType": "uint256",
          "name": "tokenId",
          "type": "uint256"
        }
      ],
      "name": "burn",
      "outputs": [],
      "stateMutability": "nonpayable",
      "type": "function"
    },
    {
      "inputs": [
        {
          "internalType": "uint256",
          "name": "tokenId",
          "type": "uint256"
        }
      ],
      "name": "tokenURI",
      "outputs": [
        {
          "internalType": "string",
          "name": "",
          "type": "string"
        }
      ],
      "stateMutability": "view",
      "type": "function"
    },
    {
      "inputs": [
        {
          "internalType": "uint256",
          "name": "tokenId",
          "type": "uint256"
        },
        {
          "internalType": "string",
          "name": "uri",
          "type": "string"
        }
      ],
      "name": "setTokenURI",
      "outputs": [],
      "stateMutability": "nonpayable",
      "type": "function"
    },
    {
      "inputs": [
        {
          "internalType": "bytes4",
          "name": "interfaceId",
          "type": "bytes4"
        }
      ],
      "name": "supportsInterface",
      "outputs": [
        {
          "internalType": "bool",
          "name": "",
          "type": "bool"
        }
      ],
      "stateMutability": "pure",
      "type": "function"
    },
    {
      "inputs": [
        {
          "internalType": "address",
          "name": "operator",
          "type": "address"
        },
        {
          "internalType": "address",
          "name": "from",
          "type": "address"
        },
        {
          "internalType": "uint256",
          "name": "tokenId",
          "type": "uint256"
        },
        {
          "internalType": "bytes",
          "name": "data",
          "type": "bytes"
        }
      ],
      "name": "onERC721Received",
      "outputs": [
        {
          "internalType": "bytes4",
          "name": "",
          "type": "bytes4"
        }
      ],
      "stateMutability": "pure",
      "type": "function"
    }
  ],
  "bytecode": "0x608060405234801561001057600080fd5b506040516133bd3803806133bd833981810160405281019061003291906101ce565b8160009081610041919061046d565b508060019081610051919061046d565b50505061053f565b6000604051905090565b600080fd5b600080fd5b600080fd5b600080fd5b6000601f19601f8301169050919050565b7f4e487b7100000000000000000000000000000000000000000000000000000000600052604160045260246000fd5b6100c082610077565b810181811067ffffffffffffffff821117156100df576100de610088565b5b80604052505050565b60006100f2610059565b90506100fe82826100b7565b919050565b600067ffffffffffffffff82111561011e5761011d610088565b5b61012782610077565b9050602081019050919050565b60005b83811015610152578082015181840152602081019050610137565b60008484015250505050565b600061017161016c84610103565b6100e8565b90508281526020810184848401111561018d5761018c610072565b5b610198848285610134565b509392505050565b600082601f8301126101b5576101b461006d565b5b81516101c584826020860161015e565b91505092915050565b600080604083850312156101e5576101e4610063565b5b600083015167ffffffffffffffff81111561020357610202610068565b5b61020f858286016101a0565b925050602083015167ffffffffffffffff8111156102305761022f610068565b5b61023c858286016101a0565b9150509250929050565b600081519050919050565b7f4e487b7100000000000000000000000000000000000000000000000000000000600052602260045260246000fd5b6000600282049050600182168061029857607f821691505b6020821081036102ab576102aa610251565b5b50919050565b60008190508160005260206000209050919050565b60006020601f8301049050919050565b60008160020a8302905092915050565b6000600883026103167fffffffffffffffffffffffffffffffffffffffffffffffffffffffffffffffff826102d6565b61032086836102d6565b95508019841693508086168417925050509392505050565b6000819050919050565b6000819050919050565b600061036761036261035d84610338565b610342565b610338565b9050919050565b6000819050919050565b6103818361034c565b61039561038d8261036e565b8484546102e6565b825550505050565b600090565b6103aa61039d565b6103b5818484610378565b505050565b5b818110156103d9576103ce6000826103a2565b6001810190506103bb565b5050565b601f82111561041e576103ef816102b1565b6103f8846102c6565b81016020851015610407578190505b61041b610413856102c6565b8301826103ba565b50505b505050565b60008160020a8304905092915050565b600061044460001984600802610423565b1980831691505092915050565b600061045d8383610433565b9150826002028217905092915050565b61047682610246565b67ffffffffffffffff81111561048f5761048e610088565b5b6104998254610280565b6104a48282856103dd565b600060209050601f8311600181146104d757600084156104c5578287015190505b6104cf8582610451565b865550610537565b601f1984166104e5866102b1565b60005b8281101561050d578489015182556001820191506020850194506020810190506104e8565b8683101561052a5784890151610526601f891682610433565b8355505b6001600288020188555050505b505050505050565b612e6f8061054e6000396000f3fe608060405234801561001057600080fd5b506004361061013e576000357c01000000000000000000000000000000000000000000000000000000009004806342842e0e116100ca57806395d89b411161008e57806395d89b4114610335578063a22cb46514610353578063b88d4fde1461036f578063c87b56dd1461038b578063e985e9c5146103bb5761013e565b806342842e0e1461027f57806342966c681461029b5780636352211e146102b757806369ab83be146102e757806370a08231146103055761013e565b8063150b7a0211610111578063150b7a02146101dd578063162094c41461020d57806323b872dd14610229578063362dfb8e1461024557806340c10f19146102635761013e565b806301ffc9a71461014357806306fdde0314610173578063081812fc14610191578063095ea7b3146101c1575b600080fd5b61015d60048036038101906101589190611a88565b6103eb565b60405161016a9190611ad0565b60405180910390f35b61017b610525565b6040516101889190611b7b565b60405180910390f35b6101ab60048036038101906101a69190611bd3565b6105b7565b6040516101b89190611c41565b60405180910390f35b6101db60048036038101906101d69190611c88565b610695565b005b6101f760048036038101906101f29190611d2d565b61086c565b6040516102049190611dc4565b60405180910390f35b61022760048036038101906102229190611f0f565b61089d565b005b610243600480360381019061023e9190611f6b565b610964565b005b61024d6109cd565b60405161025a9190611b7b565b60405180910390f35b61027d60048036038101906102789190611c88565b610a5b565b005b61029960048036038101906102949190611f6b565b610c7b565b005b6102b560048036038101906102b09190611bd3565b610c9b565b005b6102d160048036038101906102cc9190611bd3565b610e75565b6040516102de9190611c41565b60405180910390f35b6102ef610f26565b6040516102fc9190611b7b565b60405180910390f35b61031f600480360381019061031a9190611fbe565b610fb4565b60405161032c9190611ffa565b60405180910390f35b61033d61106b565b60405161034a9190611b7b565b60405180910390f35b61036d60048036038101906103689190612041565b6110fd565b005b61038960048036038101906103849190612122565b611268565b005b6103a560048036038101906103a09190611bd3565b6112d3565b6040516103b29190611b7b565b60405180910390f35b6103d560048036038101906103d091906121a5565b61141a565b6040516103e29190611ad0565b60405180910390f35b60007f80ac58cd000000000000000000000000000000000000000000000000000000007bffffffffffffffffffffffffffffffffffffffffffffffffffffffff1916827bffffffffffffffffffffffffffffffffffffffffffffffffffffffff191614806104b657507f5b5e139f000000000000000000000000000000000000000000000000000000007bffffffffffffffffffffffffffffffffffffffffffffffffffffffff1916827bffffffffffffffffffffffffffffffffffffffffffffffffffffffff1916145b8061051e57507f01ffc9a7000000000000000000000000000000000000000000000000000000007bffffffffffffffffffffffffffffffffffffffffffffffffffffffff1916827bffffffffffffffffffffffffffffffffffffffffffffffffffffffff1916145b9050919050565b60606000805461053490612214565b80601f016020809104026020016040519081016040528092919081815260200182805461056090612214565b80156105ad5780601f10610582576101008083540402835291602001916105ad565b820191906000526020600020905b81548152906001019060200180831161059057829003601f168201915b5050505050905090565b60008073ffffffffffffffffffffffffffffffffffffffff166002600084815260200190815260200160002060009054906101000a900473ffffffffffffffffffffffffffffffffffffffff1673ffffffffffffffffffffffffffffffffffffffff160361065a576040517f08c379a0000000000000000000000000000000000000000000000000000000008152600401610651906122b7565b60405180910390fd5b6004600083815260200190815260200160002060009054906101000a900473ffffffffffffffffffffffffffffffffffffffff169050919050565b60006002600083815260200190815260200160002060009054906101000a900473ffffffffffffffffffffffffffffffffffffffff1690508073ffffffffffffffffffffffffffffffffffffffff168373ffffffffffffffffffffffffffffffffffffffff160361073b576040517f08c379a000000000000000000000000000000000000000000000000000000000815260040161073290612323565b60405180910390fd5b8073ffffffffffffffffffffffffffffffffffffffff163373ffffffffffffffffffffffffffffffffffffffff16148061077b575061077a813361141a565b5b6107ba576040517f08c379a00000000000000000000000000000000000000000000000000000000081526004016107b1906123b5565b60405180910390fd5b826004600084815260200190815260200160002060006101000a81548173ffffffffffffffffffffffffffffffffffffffff021916908373ffffffffffffffffffffffffffffffffffffffff160217905550818373ffffffffffffffffffffffffffffffffffffffff168273ffffffffffffffffffffffffffffffffffffffff167f8c5be1e5ebec7d5bd14f71427d1e84f3dd0314c0f7b2291e5b200ac8c7c3b92560405160405180910390a4505050565b600063150b7a027c010000000000000000000000000000000000000000000000000000000002905095945050505050565b600073ffffffffffffffffffffffffffffffffffffffff166002600084815260200190815260200160002060009054906101000a900473ffffffffffffffffffffffffffffffffffffffff1673ffffffffffffffffffffffffffffffffffffffff160361093f576040517f08c379a000000000000000000000000000000000000000000000000000000000815260040161093690612447565b60405180910390fd5b8060066000848152602001908152602001600020908161095f9190612619565b505050565b600061096f82610e75565b905061097c8133846114ae565b6109bb576040517f08c379a00000000000000000000000000000000000000000000000000000000081526004016109b29061275d565b60405180910390fd5b6109c7818585856115e9565b50505050565b600180546109da90612214565b80601f0160208091040260200160405190810160405280929190818152602001828054610a0690612214565b8015610a535780601f10610a2857610100808354040283529160200191610a53565b820191906000526020600020905b815481529060010190602001808311610a3657829003601f168201915b505050505081565b600073ffffffffffffffffffffffffffffffffffffffff168273ffffffffffffffffffffffffffffffffffffffff1603610aca576040517f08c379a0000000000000000000000000000000000000000000000000000000008152600401610ac1906127c9565b60405180910390fd5b60006002600083815260200190815260200160002060009054906101000a900473ffffffffffffffffffffffffffffffffffffffff169050600073ffffffffffffffffffffffffffffffffffffffff168173ffffffffffffffffffffffffffffffffffffffff1614610b71576040517f08c379a0000000000000000000000000000000000000000000000000000000008152600401610b6890612835565b60405180910390fd5b6001600360008573ffffffffffffffffffffffffffffffffffffffff1673ffffffffffffffffffffffffffffffffffffffff1681526020019081526020016000206000828254610bc19190612884565b92505081905550826002600084815260200190815260200160002060006101000a81548173ffffffffffffffffffffffffffffffffffffffff021916908373ffffffffffffffffffffffffffffffffffffffff160217905550818373ffffffffffffffffffffffffffffffffffffffff16600073ffffffffffffffffffffffffffffffffffffffff167fddf252ad1be2c89b69c2b068fc378daa952ba7f163c4a11628f55a4df523b3ef60405160405180910390a4505050565b610c9683838360405180602001604052806000815250611268565b505050565b60006002600083815260200190815260200160002060009054906101000a900473ffffffffffffffffffffffffffffffffffffffff1690503373ffffffffffffffffffffffffffffffffffffffff168173ffffffffffffffffffffffffffffffffffffffff161480610d135750610d12813361141a565b5b610d52576040517f08c379a0000000000000000000000000000000000000000000000000000000008152600401610d499061292a565b60405180910390fd5b6001600360008373ffffffffffffffffffffffffffffffffffffffff1673ffffffffffffffffffffffffffffffffffffffff1681526020019081526020016000206000828254610da2919061294a565b925050819055506002600083815260200190815260200160002060006101000a81549073ffffffffffffffffffffffffffffffffffffffff02191690556004600083815260200190815260200160002060006101000a81549073ffffffffffffffffffffffffffffffffffffffff021916905581600073ffffffffffffffffffffffffffffffffffffffff168273ffffffffffffffffffffffffffffffffffffffff167fddf252ad1be2c89b69c2b068fc378daa952ba7f163c4a11628f55a4df523b3ef60405160405180910390a45050565b6000806002600084815260200190815260200160002060009054906101000a900473ffffffffffffffffffffffffffffffffffffffff169050600073ffffffffffffffffffffffffffffffffffffffff168173ffffffffffffffffffffffffffffffffffffffff1603610f1d576040517f08c379a0000000000000000000000000000000000000000000000000000000008152600401610f14906129f0565b60405180910390fd5b80915050919050565b60008054610f3390612214565b80601f0160208091040260200160405190810160405280929190818152602001828054610f5f90612214565b8015610fac5780601f10610f8157610100808354040283529160200191610fac565b820191906000526020600020905b815481529060010190602001808311610f8f57829003601f168201915b505050505081565b60008073ffffffffffffffffffffffffffffffffffffffff168273ffffffffffffffffffffffffffffffffffffffff1603611024576040517f08c379a000000000000000000000000000000000000000000000000000000000815260040161101b90612a82565b60405180910390fd5b600360008373ffffffffffffffffffffffffffffffffffffffff1673ffffffffffffffffffffffffffffffffffffffff168152602001908152602001600020549050919050565b60606001805461107a90612214565b80601f01602080910402602001604051908101604052809291908181526020018280546110a690612214565b80156110f35780601f106110c8576101008083540402835291602001916110f3565b820191906000526020600020905b8154815290600101906020018083116110d657829003601f168201915b5050505050905090565b8173ffffffffffffffffffffffffffffffffffffffff163373ffffffffffffffffffffffffffffffffffffffff160361116b576040517f08c379a000000000000000000000000000000000000000000000000000000000815260040161116290612aee565b60405180910390fd5b80600560003373ffffffffffffffffffffffffffffffffffffffff1673ffffffffffffffffffffffffffffffffffffffff16815260200190815260200160002060008473ffffffffffffffffffffffffffffffffffffffff1673ffffffffffffffffffffffffffffffffffffffff16815260200190815260200160002060006101000a81548160ff0219169083151502179055508173ffffffffffffffffffffffffffffffffffffffff163373ffffffffffffffffffffffffffffffffffffffff167f17307eab39ab6107e8899845ad3d59bd9653f200f220920489ca2b5937696c318360405161125c9190611ad0565b60405180910390a35050565b600061127383610e75565b90506112808133856114ae565b6112bf576040517f08c379a00000000000000000000000000000000000000000000000000000000081526004016112b69061275d565b60405180910390fd5b6112cc8186868686611832565b5050505050565b6060600073ffffffffffffffffffffffffffffffffffffffff166002600084815260200190815260200160002060009054906101000a900473ffffffffffffffffffffffffffffffffffffffff1673ffffffffffffffffffffffffffffffffffffffff1603611377576040517f08c379a000000000000000000000000000000000000000000000000000000000815260040161136e90612b80565b60405180910390fd5b60066000838152602001908152602001600020805461139590612214565b80601f01602080910402602001604051908101604052809291908181526020018280546113c190612214565b801561140e5780601f106113e35761010080835404028352916020019161140e565b820191906000526020600020905b8154815290600101906020018083116113f157829003601f168201915b50505050509050919050565b6000600560008473ffffffffffffffffffffffffffffffffffffffff1673ffffffffffffffffffffffffffffffffffffffff16815260200190815260200160002060008373ffffffffffffffffffffffffffffffffffffffff1673ffffffffffffffffffffffffffffffffffffffff16815260200190815260200160002060009054906101000a900460ff16905092915050565b60008373ffffffffffffffffffffffffffffffffffffffff168373ffffffffffffffffffffffffffffffffffffffff16148061154857508273ffffffffffffffffffffffffffffffffffffffff166004600084815260200190815260200160002060009054906101000a900473ffffffffffffffffffffffffffffffffffffffff1673ffffffffffffffffffffffffffffffffffffffff16145b806115e0575060011515600560008673ffffffffffffffffffffffffffffffffffffffff1673ffffffffffffffffffffffffffffffffffffffff16815260200190815260200160002060008573ffffffffffffffffffffffffffffffffffffffff1673ffffffffffffffffffffffffffffffffffffffff16815260200190815260200160002060009054906101000a900460ff161515145b90509392505050565b8273ffffffffffffffffffffffffffffffffffffffff168473ffffffffffffffffffffffffffffffffffffffff1614611657576040517f08c379a000000000000000000000000000000000000000000000000000000000815260040161164e90612c12565b60405180910390fd5b600073ffffffffffffffffffffffffffffffffffffffff168273ffffffffffffffffffffffffffffffffffffffff16036116c6576040517f08c379a00000000000000000000000000000000000000000000000000000000081526004016116bd90612ca4565b60405180910390fd5b6116d1600082611890565b6001600360008573ffffffffffffffffffffffffffffffffffffffff1673ffffffffffffffffffffffffffffffffffffffff1681526020019081526020016000206000828254611721919061294a565b925050819055506001600360008473ffffffffffffffffffffffffffffffffffffffff1673ffffffffffffffffffffffffffffffffffffffff16815260200190815260200160002060008282546117789190612884565b92505081905550816002600083815260200190815260200160002060006101000a81548173ffffffffffffffffffffffffffffffffffffffff021916908373ffffffffffffffffffffffffffffffffffffffff160217905550808273ffffffffffffffffffffffffffffffffffffffff168473ffffffffffffffffffffffffffffffffffffffff167fddf252ad1be2c89b69c2b068fc378daa952ba7f163c4a11628f55a4df523b3ef60405160405180910390a450505050565b61183e858585856115e9565b61184a848484846118e6565b611889576040517f08c379a000000000000000000000000000000000000000000000000000000000815260040161188090612d36565b60405180910390fd5b5050505050565b816004600083815260200190815260200160002060006101000a81548173ffffffffffffffffffffffffffffffffffffffff021916908373ffffffffffffffffffffffffffffffffffffffff1602179055505050565b6000808473ffffffffffffffffffffffffffffffffffffffff163b1115611a0f5763150b7a027c0100000000000000000000000000000000000000000000000000000000027bffffffffffffffffffffffffffffffffffffffffffffffffffffffff19168473ffffffffffffffffffffffffffffffffffffffff1663150b7a02338887876040518563ffffffff167c01000000000000000000000000000000000000000000000000000000000281526004016119a59493929190612dab565b6020604051808303816000875af11580156119c4573d6000803e3d6000fd5b505050506040513d601f19601f820116820180604052508101906119e89190612e0c565b7bffffffffffffffffffffffffffffffffffffffffffffffffffffffff1916149050611a14565b600190505b949350505050565b6000604051905090565b600080fd5b600080fd5b60007fffffffff0000000000000000000000000000000000000000000000000000000082169050919050565b611a6581611a30565b8114611a7057600080fd5b50565b600081359050611a8281611a5c565b92915050565b600060208284031215611a9e57611a9d611a26565b5b6000611aac84828501611a73565b91505092915050565b60008115159050919050565b611aca81611ab5565b82525050565b6000602082019050611ae56000830184611ac1565b92915050565b600081519050919050565b600082825260208201905092915050565b60005b83811015611b25578082015181840152602081019050611b0a565b60008484015250505050565b6000601f19601f8301169050919050565b6000611b4d82611aeb565b611b578185611af6565b9350611b67818560208601611b07565b611b7081611b31565b840191505092915050565b60006020820190508181036000830152611b958184611b42565b905092915050565b6000819050919050565b611bb081611b9d565b8114611bbb57600080fd5b50565b600081359050611bcd81611ba7565b92915050565b600060208284031215611be957611be8611a26565b5b6000611bf784828501611bbe565b91505092915050565b600073ffffffffffffffffffffffffffffffffffffffff82169050919050565b6000611c2b82611c00565b9050919050565b611c3b81611c20565b82525050565b6000602082019050611c566000830184611c32565b92915050565b611c6581611c20565b8114611c7057600080fd5b50565b600081359050611c8281611c5c565b92915050565b60008060408385031215611c9f57611c9e611a26565b5b6000611cad85828601611c73565b9250506020611cbe85828601611bbe565b9150509250929050565b600080fd5b600080fd5b600080fd5b60008083601f840112611ced57611cec611cc8565b5b8235905067ffffffffffffffff811115611d0a57611d09611ccd565b5b602083019150836001820283011115611d2657611d25611cd2565b5b9250929050565b600080600080600060808688031215611d4957611d48611a26565b5b6000611d5788828901611c73565b9550506020611d6888828901611c73565b9450506040611d7988828901611bbe565b935050606086013567ffffffffffffffff811115611d9a57611d99611a2b565b5b611da688828901611cd7565b92509250509295509295909350565b611dbe81611a30565b82525050565b6000602082019050611dd96000830184611db5565b92915050565b600080fd5b7f4e487b7100000000000000000000000000000000000000000000000000000000600052604160045260246000fd5b611e1c82611b31565b810181811067ffffffffffffffff82111715611e3b57611e3a611de4565b5b80604052505050565b6000611e4e611a1c565b9050611e5a8282611e13565b919050565b600067ffffffffffffffff821115611e7a57611e79611de4565b5b611e8382611b31565b9050602081019050919050565b82818337600083830152505050565b6000611eb2611ead84611e5f565b611e44565b905082815260208101848484011115611ece57611ecd611ddf565b5b611ed9848285611e90565b509392505050565b600082601f830112611ef657611ef5611cc8565b5b8135611f06848260208601611e9f565b91505092915050565b60008060408385031215611f2657611f25611a26565b5b6000611f3485828601611bbe565b925050602083013567ffffffffffffffff811115611f5557611f54611a2b565b5b611f6185828601611ee1565b9150509250929050565b600080600060608486031215611f8457611f83611a26565b5b6000611f9286828701611c73565b9350506020611fa386828701611c73565b9250506040611fb486828701611bbe565b9150509250925092565b600060208284031215611fd457611fd3611a26565b5b6000611fe284828501611c73565b91505092915050565b611ff481611b9d565b82525050565b600060208201905061200f6000830184611feb565b92915050565b61201e81611ab5565b811461202957600080fd5b50565b60008135905061203b81612015565b92915050565b6000806040838503121561205857612057611a26565b5b600061206685828601611c73565b92505060206120778582860161202c565b9150509250929050565b600067ffffffffffffffff82111561209c5761209b611de4565b5b6120a582611b31565b9050602081019050919050565b60006120c56120c084612081565b611e44565b9050828152602081018484840111156120e1576120e0611ddf565b5b6120ec848285611e90565b509392505050565b600082601f83011261210957612108611cc8565b5b81356121198482602086016120b2565b91505092915050565b6000806000806080858703121561213c5761213b611a26565b5b600061214a87828801611c73565b945050602061215b87828801611c73565b935050604061216c87828801611bbe565b925050606085013567ffffffffffffffff81111561218d5761218c611a2b565b5b612199878288016120f4565b91505092959194509250565b600080604083850312156121bc576121bb611a26565b5b60006121ca85828601611c73565b92505060206121db85828601611c73565b9150509250929050565b7f4e487b7100000000000000000000000000000000000000000000000000000000600052602260045260246000fd5b6000600282049050600182168061222c57607f821691505b60208210810361223f5761223e6121e5565b5b50919050565b7f506970693a20617070726f76656420717565727920666f72206e6f6e6578697360008201527f74656e7420746f6b656e00000000000000000000000000000000000000000000602082015250565b60006122a1602a83611af6565b91506122ac82612245565b604082019050919050565b600060208201905081810360008301526122d081612294565b9050919050565b7f506970693a20617070726f76616c20746f2063757272656e74206f776e657200600082015250565b600061230d601f83611af6565b9150612318826122d7565b602082019050919050565b6000602082019050818103600083015261233c81612300565b9050919050565b7f506970693a20617070726f76652063616c6c6572206973206e6f74206f776e6560008201527f72206e6f7220617070726f76656420666f7220616c6c00000000000000000000602082015250565b600061239f603683611af6565b91506123aa82612343565b604082019050919050565b600060208201905081810360008301526123ce81612392565b9050919050565b7f506970693a2055524920736574206f66206e6f6e6578697374656e7420746f6b60008201527f656e000000000000000000000000000000000000000000000000000000000000602082015250565b6000612431602283611af6565b915061243c826123d5565b604082019050919050565b6000602082019050818103600083015261246081612424565b9050919050565b60008190508160005260206000209050919050565b60006020601f8301049050919050565b60008160020a8302905092915050565b6000600883026124cc7fffffffffffffffffffffffffffffffffffffffffffffffffffffffffffffffff8261248c565b6124d6868361248c565b95508019841693508086168417925050509392505050565b6000819050919050565b600061251361250e61250984611b9d565b6124ee565b611b9d565b9050919050565b6000819050919050565b61252d836124f8565b6125416125398261251a565b84845461249c565b825550505050565b600090565b612556612549565b612561818484612524565b505050565b5b818110156125855761257a60008261254e565b600181019050612567565b5050565b601f8211156125ca5761259b81612467565b6125a48461247c565b810160208510156125b3578190505b6125c76125bf8561247c565b830182612566565b50505b505050565b60008160020a8304905092915050565b60006125f0600019846008026125cf565b1980831691505092915050565b600061260983836125df565b9150826002028217905092915050565b61262282611aeb565b67ffffffffffffffff81111561263b5761263a611de4565b5b6126458254612214565b612650828285612589565b600060209050601f8311600181146126835760008415612671578287015190505b61267b85826125fd565b8655506126e3565b601f19841661269186612467565b60005b828110156126b957848901518255600182019150602085019450602081019050612694565b868310156126d657848901516126d2601f8916826125df565b8355505b6001600288020188555050505b505050505050565b7f506970693a207472616e736665722063616c6c6572206973206e6f74206f776e60008201527f6572206e6f7220617070726f7665640000000000000000000000000000000000602082015250565b6000612747602f83611af6565b9150612752826126eb565b604082019050919050565b600060208201905081810360008301526127768161273a565b9050919050565b7f506970693a206d696e7420746f20746865207a65726f20616464726573730000600082015250565b60006127b3601e83611af6565b91506127be8261277d565b602082019050919050565b600060208201905081810360008301526127e2816127a6565b9050919050565b7f506970693a20746f6b656e20616c7265616479206d696e746564000000000000600082015250565b600061281f601a83611af6565b915061282a826127e9565b602082019050919050565b6000602082019050818103600083015261284e81612812565b9050919050565b7f4e487b7100000000000000000000000000000000000000000000000000000000600052601160045260246000fd5b600061288f82611b9d565b915061289a83611b9d565b92508282019050808211156128b2576128b1612855565b5b92915050565b7f506970693a2063616c6c6572206973206e6f74206f776e6572206e6f7220617060008201527f70726f76656420666f7220616c6c000000000000000000000000000000000000602082015250565b6000612914602e83611af6565b915061291f826128b8565b604082019050919050565b6000602082019050818103600083015261294381612907565b9050919050565b600061295582611b9d565b915061296083611b9d565b925082820390508181111561297857612977612855565b5b92915050565b7f506970693a206f776e657220717565727920666f72206e6f6e6578697374656e60008201527f7420746f6b656e00000000000000000000000000000000000000000000000000602082015250565b60006129da602783611af6565b91506129e58261297e565b604082019050919050565b60006020820190508181036000830152612a09816129cd565b9050919050565b7f506970693a2062616c616e636520717565727920666f7220746865207a65726f60008201527f2061646472657373000000000000000000000000000000000000000000000000602082015250565b6000612a6c602883611af6565b9150612a7782612a10565b604082019050919050565b60006020820190508181036000830152612a9b81612a5f565b9050919050565b7f506970693a20617070726f766520746f2063616c6c6572000000000000000000600082015250565b6000612ad8601783611af6565b9150612ae382612aa2565b602082019050919050565b60006020820190508181036000830152612b0781612acb565b9050919050565b7f506970693a2055524920717565727920666f72206e6f6e6578697374656e742060008201527f746f6b656e000000000000000000000000000000000000000000000000000000602082015250565b6000612b6a602583611af6565b9150612b7582612b0e565b604082019050919050565b60006020820190508181036000830152612b9981612b5d565b9050919050565b7f506970693a207472616e73666572206f6620746f6b656e20746861742069732060008201527f6e6f74206f776e00000000000000000000000000000000000000000000000000602082015250565b6000612bfc602783611af6565b9150612c0782612ba0565b604082019050919050565b60006020820190508181036000830152612c2b81612bef565b9050919050565b7f506970693a207472616e7366657220746f20746865207a65726f20616464726560008201527f7373000000000000000000000000000000000000000000000000000000000000602082015250565b6000612c8e602283611af6565b9150612c9982612c32565b604082019050919050565b60006020820190508181036000830152612cbd81612c81565b9050919050565b7f506970693a207472616e7366657220746f206e6f6e204552433732315265636560008201527f6976657220696d706c656d656e74657200000000000000000000000000000000602082015250565b6000612d20603083611af6565b9150612d2b82612cc4565b604082019050919050565b60006020820190508181036000830152612d4f81612d13565b9050919050565b600081519050919050565b600082825260208201905092915050565b6000612d7d82612d56565b612d878185612d61565b9350612d97818560208601611b07565b612da081611b31565b840191505092915050565b6000608082019050612dc06000830187611c32565b612dcd6020830186611c32565b612dda6040830185611feb565b8181036060830152612dec8184612d72565b905095945050505050565b600081519050612e0681611a5c565b92915050565b600060208284031215612e2257612e21611a26565b5b6000612e3084828501612df7565b9150509291505056fea2646970667358221220efe3a5478c999d5efe17362cbcab85bbd004200936f2ffc192bef5b31ceed08a64736f6c634300081d0033",
  "immutableReferences": {},
  "source": "// SPDX-License-Identifier: MIT\npragma solidity ^0.8.29;\n\nimport \"./IERC721.sol\";\n\ncontract Pipi is IERC721, IERC165, IERC721Metadata, IERC721Receiver {\n\n    // NFT\n    string public _contractName;\n    // NFT\n    string public _contractSymbol;\n    // tokenId => owner tokenId\n    mapping(uint256 => address) _owners;\n    // address => NFT NFT\n    mapping(address => uint256) _balances;\n    // tokenId => address tokenId\n    mapping(uint256 => address) _tokenApprovals;\n    // owner => operator\n    mapping(address => mapping(address => bool)) _operatorApprovals;\n    // tokenId => tokenURI\n    mapping(uint256 => string) _tokenURIs;\n\n    constructor(string memory name1, string memory symbol1) {\n        _contractName = name1;\n        _contractSymbol = symbol1;\n    }\n\n    // NFT\n    function name() public view returns (string memory) {\n        return _contractName;\n    }\n\n    // NFT\n    function symbol() public view returns (string memory) {\n        return _contractSymbol;\n    }\n\n    // NFT\n    function balanceOf(address owner) public view returns (uint256) {\n        require(owner != address(0), \"Pipi: balance query for the zero address\");\n        return _balances[owner];\n    }\n\n    // tokenId\n    function ownerOf(uint256 tokenId) public view returns (address) {\n        address owner = _owners[tokenId];\n        require(owner != address(0), \"Pipi: owner query for nonexistent token\");\n        return owner;\n    }\n\n    // tokenId\n    function approve(address to, uint256 tokenId) public {\n        address owner = _owners[tokenId];\n        require(to != owner, \"Pipi: approval to current owner\");\n        require(msg.sender == owner || isApprovedForAll(owner, msg.sender), \"Pipi: approve caller is not owner nor approved for all\");\n        _tokenApprovals[tokenId] = to;\n        emit Approval(owner, to, tokenId);\n    }\n\n    // tokenId\n    function getApproved(uint256 tokenId) public view returns (address) {\n        require(_owners[tokenId] != address(0), \"Pipi: approved query for nonexistent token\");\n        return _tokenApprovals[tokenId];\n    }\n\n    // \n    function setApprovalForAll(address operater, bool _approved) public {\n        require(msg.sender != operater, \"Pipi: approve to caller\");\n        _operatorApprovals[msg.sender][operater] = _approved;\n        emit ApprovalForAll(msg.sender, operater, _approved);\n    }\n\n    // \n    function isApprovedForAll(address owner, address operater) public view returns (bool) {\n        return _operatorApprovals[owner][operater];\n    }\n\n    // tokenId\n    function _approve(address to, uint256 tokenId) private {\n        _tokenApprovals[tokenId] = to;\n    }\n\n    // tokenId\n    function _isApprovedOrOwner(address owner, address spender, uint256 tokenId) internal view returns (bool) {\n        return (spender == owner || _tokenApprovals[tokenId] == spender || _operatorApprovals[owner][spender] == true);\n    }\n\n    // tokenId\n    function _transfer(address owner, address from, address to, uint256 tokenId) internal {\n        require(owner == from, \"Pipi: transfer of token that is not own\");\n        require(to != address(0), \"Pipi: transfer to the zero address\");\n        _approve(address(0), tokenId);\n        _balances[from] -= 1;\n        _balances[to] += 1;\n        _owners[tokenId] = to;\n        emit Transfer(from, to, tokenId);\n    }\n\n    // tokenId\n    function transferFrom(address from, address to,uint256 tokenId) public{\n        address owner = ownerOf(tokenId);\n        require(_isApprovedOrOwner(owner, msg.sender, tokenId), \"Pipi: transfer caller is not owner nor approved\");\n        _transfer(owner, from, to, tokenId);    \n    }\n\n    // tokenId\n    function safeTransferFrom(address from, address to, uint256 tokenId, bytes memory _data) public {\n        address owner = ownerOf(tokenId);\n        require(_isApprovedOrOwner(owner, msg.sender, tokenId), \"Pipi: transfer caller is not owner nor approved\");\n        _safetransfer(owner, from, to, tokenId, _data);\n    }\n\n    function safeTransferFrom(address from, address to, uint256 tokenId) public {\n        safeTransferFrom(from, to, tokenId, \"\");\n    }\n\n    // tokenId\n    function _safetransfer(address owner, address from, address to, uint256 tokenId, bytes memory _data) internal {\n        _transfer(owner, from, to, tokenId);\n        require(_checkOnERC721Received(from, to, tokenId, _data), \"Pipi: transfer to non ERC721Receiver implementer\");\n    }\n\n    // tokenId\n    function mint(address to, uint256 tokenId) public {\n        require(to != address(0), \"Pipi: mint to the zero address\");\n        address owner = _owners[tokenId];\n        require(owner == address(0), \"Pipi: token already minted\");\n        _balances[to] += 1;\n        _owners[tokenId] = to;\n        emit Transfer(address(0), to, tokenId);\n    }\n\n    // tokenId\n    function burn(uint256 tokenId) public {\n        address owner = _owners[tokenId];\n        require(owner == msg.sender || isApprovedForAll(owner, msg.sender), \"Pipi: caller is not owner nor approved for all\");\n        _balances[owner] -= 1;\n        delete _owners[tokenId];\n        delete _tokenApprovals[tokenId];\n        emit Transfer(owner, address(0), tokenId);\n    }\n\n    // tokenIdURI\n    function tokenURI(uint256 tokenId) public view returns (string memory) {\n        require(_owners[tokenId] != address(0), \"Pipi: URI query for nonexistent token\");\n        return _tokenURIs[tokenId];\n    }\n\n    // tokenIdURI\n    function setTokenURI(uint256 tokenId, string memory uri) public {\n        require(_owners[tokenId] != address(0), \"Pipi: URI set of nonexistent token\");\n        _tokenURIs[tokenId] = uri;\n    }\n\n    // \n    function supportsInterface(bytes4 interfaceId) public pure returns (bool) {\n        return interfaceId == type(IERC721).interfaceId \n                || interfaceId == type(IERC721Metadata).interfaceId \n                || interfaceId == type(IERC165).interfaceId;\n    }\n\n    // onERC721Received\n    function _checkOnERC721Received(address from, address to, uint256 tokenId, bytes memory _data) private returns (bool) {\n        if (to.code.length > 0) {\n            return IERC721Receiver(to).onERC721Received(msg.sender, from, tokenId, _data) == IERC721Receiver.onERC721Received.selector;\n        } else {\n            return true;\n        }\n    }\n\n    // IERC721ReceiverNFT\n    function onERC721Received(address operator, address from, uint256 tokenId, bytes calldata data) external pure override returns (bytes4) {\n        return this.onERC721Received.selector;\n    }\n}",
  "sourcePath": "/Users/weiwei/Desktop///ERC721-NFT-Demo/contracts/Pipi.sol",
  "compiler": {
    "name": "solc",
    "version": "0.8.29+commit.ab55807c.Emscripten.clang"
  },
  "schemaVersion": "3.4.16",
  "updatedAt": "2025-03-16T10:09:31.078Z",
  "devdoc": {
    "kind": "dev",
    "methods": {},
    "version": 1
  },
  "userdoc": {
    "kind": "user",
    "methods": {},
    "version": 1
  }
}